:10075500EEDEBE7EEDDDBD7DEBDBBB7BE7D7B777A0
:0E0765004572726F7221002E2E2E2E2E2E0047
:10078B00063C0F0F0F0F0F0F06320F0F0F0F0F0F30
:03079B0001270033
:040724008E088F09A3
:10072800E5091509AE0870021508FFEF4E601D7542
:100738000A00750B00C3E50B9478E50A940050E0B5
:0C074800050BE50B7002050A80EB80D465
:010754002282
:10077300C297D296D2957F057E00120724A2A79234
:0707830000C2950527A2004A
:01078A00224C
:10065C008F0C120773E433FFAE27EEFD7C00D3ED55
:10066C00940AEC6480948050047E0180027E00EE3B
:10067C005FFFEF70DDC297C296C2957F057E0012B8
:10068C000724850CA07F057E00120724D2957F05D8
:08069C007E00120724C2952222
:1006A4008F0D120773E433FFAE27EEFD7C00D3ED0C
:1006B400940AEC6480948050047E0180027E00EEF3
:1006C4005FFFEF70DDD297C296C2957F057E001260
:1006D4000724850DA07F057E00120724D2957F058F
:0806E4007E00120724C29522DA
:1006EC007F057E001207247F3812065C7F057E0092
:1006FC001207247F0C12065C7F057E001207247FF4
:10070C000612065C7F057E001207247F0112065C30
:08071C007F057E001207242274
:100003007538007539147528007529017521007537
:100013002200752C00752D00752E00752F00754478
:100023000075450075300075310075460075470051
:100033007525007526007523007524001206EC75DE
:10004300B0F0AFB07E008E308F315331F0533000BB
:10005300E53164F0453070030200DF7F057E001256
:10006300072475B0F0AFB07E008E308F315331F07E
:10007300533000E53164F0453060C4853038853154
:100083003943310F8531B0E5B0540FFF7E008E3018
:100093008F31E5304238E53142397542007543000E
:1000A300C3E5439410E54294005094AE42AF4374C9
:1000B300552FF58274073EF583E493FF7E00EFB579
:1000C300390DEEB5380985423885433902004205BA
:1000D30043E5437002054280C7020042E5396414D8
:1000E3004538700A7F057E00120724020042E53975
:1000F300640E453870467F057E001207241206EC15
:100103007538007539147528007529017521007536
:100113002200752C00752D00752E00752F00754477
:100123000075450075460075470075300075310050
:10013300752500752600752300752400754200752A
:100143004300C3E5439406E5429400501AAF437459
:10015300322FF8760FAF43743C2FF8760F0543E543
:10016300437002054280DBE5298528F01205A301CF
:100173007E00010268000200000042D3E5399409C1
:10018300E538940050047F0180027F00C3E5389472
:100193000040047E0180027E00EE5FFFEF603EE5DB
:1001A300474546700D7F8012065C0547E5477002A0
:1001B30005467F057E00120724AF39EF2430FF1276
:1001C30006A4AE23AF247C007D0A12053CEF25393B
:1001D300F524EE3538F523753800753914D3E53930
:1001E300940DE538940050047F0180027F00C3E53D
:1001F30039940AE538940040047E0180027E00EEC3
:100203005FFFEF70030200420529E529700205280C
:1002130085383A85393BE53B853AF01205A302352B
:10022300000A0241000B024D000C0259000D0000B0
:100233000042AF3BEF2421FF1206A4020042AF3B72
:10024300EF2422FF1206A4020042AF3BEF241EFF5D
:100253001206A4020042AF3BEF2422FF1206A402BF
:100263000042020042D3E5399409E5389400500472
:100273007F0180027F00C3E538940040047E018043
:10028300027E00EE5FFFEF602BAF39EF2430FF12E9
:1002930006A47FE87E03120724AE25AF267C007DEB
:1002A3000A12053CEF2539F526EE3538F525753864
:1002B30000753914E539640F45386003020042754F
:1002C3002800752901753800753914E53B853AF026
:1002D3001205A302EA000A02F8000B0327000C032D
:1002E30038000D00000364E5242526F52BE52335AE
:1002F30025F52A806CC3E5249526E5239525400F33
:10030300C3E5249526F52BE5239525F52A8052751B
:100313002E00752F01C3E5269524F52BE52595239E
:10032300F52A803DAC25AD26AE23AF2412053C8EC5
:100333002A8F2B802CE52645257008752C00752DFA
:1003430001801EAC25AD26AE23AF2412054E8E2AA6
:100353008F2BAC25AD26AE23AF2412054E8C218DF9
:1003630022E52D6401452C704A7FC012065C75425C
:1003730000754300AE42AF4374652FF58274073EA8
:10038300F583E493FFEF7003020042AE42AF437480
:10039300652FF58274073EF583E493FF1206A47F6D
:1003A300057E001207240543E5437002054280C41D
:1003B3000200427FC012065C7F057E001207247F85
:1003C3003D1206A4E52F6401452E70057F2D12060C
:1003D300A4754200754300C3E5439406E5429400C7
:1003E3005039AE2AAF2B7C007D0A12054EAF05AE05
:1003F30043C374059EFE743C2EF8A607AE2AAF2BAA
:100403007C007D0A12054E8E2A8F2BE52B452A6030
:100413000A0543E5437002054280BC7542007543FB
:1004230000C3E5439406E54294005030AF43743C67
:100433002FF8E6FF7E00EF640F4E600FAF43743C6E
:100443002FF8E6FFEF2430FF1206A47F057E00128B
:1004530007240543E5437002054280C5E522452193
:100463007003020042754200754300AE42AF43740D
:10047300652FF58274073EF583E493FFEF6025AEA5
:1004830042AF43746C2FF58274073EF583E493FF08
:100493001206A47F057E001207240543E54370027C
:1004A300054280C7754200754300C3E5439406E5E2
:1004B3004294005039AE21AF227C007D0A12054ED2
:1004C300AF05AE43C374059EFE74322EF8A607AE85
:1004D30021AF227C007D0A12054E8E218F22E52258
:1004E3004521600A0543E5437002054280BC75421D
:1004F30000754300C3E5439406E5429400400302BC
:100503000042AF4374322FF8E6FF7E00EF640F4ED4
:10051300600FAF4374322FF8E6FFEF2430FF12066B
:10052300A47F057E001207240543E54370020542BC
:0905330080C202004202004222D3
:030000000205D026
:0C05D000787FE4F6D8FD7581470206171D
:10053C00EF8DF0A4A8F0CF8CF0A428CE8DF0A42ED3
:02054C00FE228D
:10054E00BC000BBE0029EF8DF084FFADF022E4CC91
:10055E00F875F008EF2FFFEE33FEEC33FCEE9DEC5A
:10056E00984005FCEE9DFE0FD5F0E9E4CEFD22EDA0
:10057E00F8F5F0EE8420D21CFEADF075F008EF2FEA
:10058E00FFED33FD4007985006D5F0F222C398FDDB
:05059E000FD5F0EA2278
:1005A300D083D082F8E4937012740193700DA3A3E7
:1005B30093F8740193F5828883E473740293B5F01E
:0D05C300067403936860E9A3A3A3A380D886
:1005DC00020003E493A3F8E493A34003F68001F232
:1005EC0008DFF48029E493A3F85407240CC8C33320
:1005FC00C4540F4420C8834004F456800146F6DFEF
:10060C00E4800B010204081020408090078BE47EEC
:10061C00019360BCA3FF543F30E509541FFEE493E3
:10062C00A360010ECF54C025E060A840B8E493A3AA
:10063C00FAE493A3F8E493A3C8C582C8CAC583CAD5
:10064C00F0A3C8C582C8CAC583CADFE9DEE780BE8D
:01079E00005A
:00000001FF
