:06038600663D00487A000C
:0E03770006090F0F0F0F0F0F010800011001F4
:0402E1008E128F13D7
:1002E500E5131513AE1270021512FFEF4E601D7562
:1002F5001400751500C3E5159478E514940050E0D5
:0C0305000515E5157002051480EB80D48E
:0103110022C9
:10035F00C2A0D2A1D2A27F057E001202E1A2979283
:07036F0000C2A20508A20074
:010376002264
:100219008F1C12035FE433FFAE08EEFD7C00D3EDC3
:10022900940AEC6480948050047E0180027E00EE82
:100239005FFFEF70DDC2A0C2A1C2A27F057E0012DE
:1002490002E1851C907F057E001202E1D2A27F05A2
:080259007E001202E1C2A222A4
:100261008F1D12035FE433FFAE08EEFD7C00D3ED7A
:10027100940AEC6480948050047E0180027E00EE3A
:100281005FFFEF70DDD2A0C2A1C2A27F057E001286
:1002910002E1851D907F057E001202E1D2A27F0559
:0802A1007E001202E1C2A2225C
:0B000E008F1EE51E2480FF1202192245
:1002A9007F057E001202E17F381202197F057E0068
:1002B9001202E17F0C1202197F057E001202E17F12
:1002C900061202197F057E001202E17F011202194E
:0802D9007F057E001202E12204
:03000B00020312DB
:10031200C0E0C0D075D000C006C007C2A9758C3C31
:10032200758AB10510AF107E00EF64144E70067529
:100332000F01751000D2A9D007D006D0D0D0E0327C
:03001B00020003DD
:07000300C2ABB2A3D2AB3285
:10034200C2A420A7057580FF80F8D2A5AF807E00E9
:0C0352008E1A8F1BC2A5D2A4AE1AAF1BDE
:01035E00227C
:1000EE008F1F7F0212000E751100AF117E00C3EF3D
:1000FE009406EE648094805028E51F75F00A84AF54
:10010E00F0C374059511FE74092EF8A607E51F7548
:10011E00F00A84F51FAF1F7E00EF4E6004051180BC
:10012E00C9751100AF117E00C3EF9406EE64809482
:10013E0080502AAF1174092FF8E6FF7E00EF640F8E
:10014E004E600FAF1174092FF8E6FFEF2430FF1247
:10015E0002617F057E001202E1051180C775110054
:10016E00AF11EF90038993FFEF600FAF11EF900384
:0F017E008993FF120261051180E6D2ABD2A9224C
:10001E00750F00C2A5C2A6751800751100751700E0
:10002E00751600D2A47510011202A9AF11EF90033C
:10003E008693FFEF6016AF11EF90038693FF1202C7
:10004E00617F057E001202E1051180DF758921D2E4
:10005E00AF758C3C758AB0D2A9D28C758DFE758B1E
:10006E00FED2ABD28E8517161203428F17AF167EB5
:10007E0000C3EF9480EE64809480500FAF177E0023
:10008E00D3EF9480EE648094805028AF167E00D318
:10009E00EF9480EE64809480400FAF177E00C3EF24
:1000AE009480EE64809480400AAF177E00EF6480E7
:1000BE004E700B0519D2A60000000000C2A6AF0FAD
:1000CE007E00EF64014E709DC2ABC2A9750F00E5B4
:0F00DE0019C313F518AF181200EE7519008086BC
:0100ED0022F0
:0300000002018D6D
:0C018D00787FE4F6D8FD7581200201D4D3
:1001990002001EE493A3F8E493A34003F68001F25E
:1001A90008DFF48029E493A3F85407240CC8C33367
:1001B900C4540F4420C8834004F456800146F6DF36
:1001C900E4800B0102040810204080900377E47E4C
:1001D900019360BCA3FF543F30E509541FFEE4932B
:1001E900A360010ECF54C025E060A840B8E493A3F2
:1001F900FAE493A3F8E493A3C8C582C8CAC583CA1D
:10020900F0A3C8C582C8CAC583CADFE9DEE780BED4
:010385000077
:00000001FF
