:0E010200C8A07850280F171B1D1E22122111B5
:1000E800EF1FAA0670011E4A600FE4FDEDC3947865
:0900F8007480948050EA0D80F33D
:0101010022DB
:10000300750801E4F990010793F5807590FEE4FB10
:1000130075B030AFB0530730EF6430603C7F0A7E79
:10002300001200E875B030AFB0530730EF643060B2
:10003300DFAB074307038FB0E5B054034203E4FC8F
:10004300ECC394047480948050C6EC90010C93B577
:100053000304AB0480BA0C80E7EBFF7E00700375EA
:100063000801EF64014E7002F508EF64024E700C54
:10007300E964047002800109E508F4FBEB64037092
:100083000AE97002800119E508F4FBE508640170D0
:1000930023FCE990010293FFECC39F500A7F057E86
:1000A300001200E80C80EBAF907801EF0880012389
:1000B300D8FDF590E5087023FCE990010293FFEC6D
:1000C300C39F500A7F057E001200E80C80EBAF90BF
:1000D3007801EF08800103D8FDF590E990010793BB
:0500E300F5800200138E
:03000000020110EA
:0C011000787FE4F6D8FD7581080200033A
:00000001FF
